:100000000C9493010C94BB010C94BB010C94BB01A8
:100010000C94BB010C94BB010C94BB010C94BB0170
:100020000C94BB010C94BB010C94BB010C94BB0160
:100030000C94BB010C94BB010C94BB010C94BB0150
:100040000C9453080C94BB010C9421080C94FB07EE
:100050000C94BB010C94BB010C94BB010C94BB0130
:100060000C949D080C94BB014E414E494E49545985
:10007000494E46CDCCCC3D0AD7233C17B7D1387773
:10008000CC2B329595E6241FB14F0A000020410089
:1000900000C84200401C4620BCBE4CCA1B0E5AAED3
:1000A000C59D7444656661756C742073657474696C
:1000B0006E677320726573746F7265642E00496E8B
:1000C00076616C69642042617564205261746521B7
:1000D0000044454641554C5453202D2052657365CC
:1000E0007420746F20666163746F72792064656632
:1000F00061756C74730053484F57202D2053686FFF
:10010000772063757272656E742073657474696E9E
:10011000677320616E6420696E666F726D617469C9
:100120006F6E0048454C50202D2053686F77207427
:100130006869732073637265656E0054494D454468
:100140002058585858202D2053656E6420646174DF
:1001500061206175746F6D61746963616C6C792085
:1001600065766572792058585858206D696C6C69AD
:100170007365636F6E647300534554424155442068
:100180005858585858202D2053657420746865209D
:1001900062617564207261746520746F20616E798C
:1001A000207374616E646172642072617465206290
:1001B00065747765656E20313230302D31313532DE
:1001C00030300053455443414C2058582E58582045
:1001D0002D20536574207468652063616C696272B8
:1001E0006174696F6E20696E206D6D2F6D560045CC
:1001F0006E74657220636F6D6D616E647320666FDF
:100200006C6C6F776564206279206E65776C696EBF
:1002100065206368617261637465720054696D651D
:1002200064206F757470757420286D73293A2000EE
:100230002E004669726D776172652056657273692A
:100240006F6E3A20004261756420526174653A20F5
:100250000043616C6962726174696F6E206D6D2F0D
:100260006D563A200053797374656D20426F6F7438
:100270002056616C75653A20002D2D2D2D2D2D2DCC
:100280002D2D2D2D2D2D2D2D2D2D2D2D2D2D2D2D9E
:100290002D2D2D0043726565702041707061726173
:1002A0007475732053657474696E67730052657357
:1002B000746F72696E672044656661756C74732132
:1002C00000434D443A20436F6D6D616E64206E6F44
:1002D00074207265636F676E697A65642E00000032
:1002E0000000250028002B00040404040404040476
:1002F00002020202020203030303030301020408D1
:10030000102040800102040810200102040810207F
:1003100000000008000201000003040700000000C4
:1003200000000000BC0911241FBECFEFD8E0DEBFE3
:10033000CDBF23E0A4E7B1E001C01D92AC33B2070A
:10034000E1F711E0A0E0B1E0EAE3F7E202C00590D6
:100350000D92A437B107D9F711E0C3E9D1E004C089
:100360002197FE010E946012C239D107C9F70E948D
:10037000FE090C949B130C940000CF92DF92EF9235
:10038000FF926B017C01E0919602F091970282E06E
:100390008083C11481EED806E104F104A1F060E08D
:1003A00079E08DE390E0A70196010E94CE102150E4
:1003B00031094109510956954795379527952115DA
:1003C00080E13807A8F0E0919602F0919702108240
:1003D00060E874E88EE190E0A70196010E94CE10DB
:1003E000215031094109510956954795379527956F
:1003F000E0919202F09193023083E0919402F091A7
:100400009502208310929E02E0919A02F0919B0245
:1004100086E08083E0919802F0919902808180616A
:100420008083E0919802F0919902808188608083B6
:10043000E0919802F0919902808180688083E09138
:100440009802F091990280818F7D8083FF90EF90D8
:10045000DF90CF90089590E0FC01E05FFC4F249185
:10046000FC01E450FD4F3491FC01E851FD4FE49153
:10047000EE23B1F0222339F02330E9F090F421305B
:1004800001F1223011F1F0E0EE0FFF1FE252FD4FBB
:10049000A591B4918FB7F894EC913E2B3C938FBF0C
:1004A00008952730A9F02830C9F0243061F78091F1
:1004B00080008F7D03C0809180008F7780938000C3
:1004C000E2CF84B58F7784BDDECF84B58F7DFBCF3F
:1004D0008091B0008F778093B000D5CF8091B0002D
:1004E0008F7DF9CF982F2091760281E0213208F09C
:1004F00043C0809152028111FCCF8091750232E09D
:1005000030935202909351029FEF909350021092B9
:100510004F0220934E02A5E5B2E0EEE2F2E090E059
:10052000291331C010922D0290912D02880F892B32
:1005300080932D0280912C02813049F510922C027B
:1005400080912D028093BB008091BC0083FDF8CF89
:1005500085EC8093BC00809152028230E1F380915F
:1005600050028F3FB1F0809150028032A1F0809113
:100570005002803391F084E010925402109276027F
:100580001092530208953D9131939F5FC9CF85EE3C
:10059000E0CF80E0F1CF82E0EFCF83E0EDCF0895B0
:1005A0000895DC01ED91FC910190F081E02D09941A
:1005B000AF92BF92CF92DF92EF92FF920F931F9371
:1005C000CF93DF936C017B018B01040F151FEB01AF
:1005D0005E01AE18BF08C017D10759F06991D60166
:1005E000ED91FC910190F081E02DC6010995892BD8
:1005F00079F7C501DF91CF911F910F91FF90EF9097
:10060000DF90CF90BF90AF900895FC01538D448D43
:10061000252F30E0842F90E0821B930B541710F0AD
:10062000CF96089501970895FC01918D828D9817BA
:1006300061F0A28DAE0FBF2FB11D5D968C91928D92
:100640009F5F9F73928F90E008958FEF9FEF0895C3
:10065000FC01918D828D981731F0828DE80FF11D8C
:10066000858D90E008958FEF9FEF0895FC01918DA7
:10067000228D892F90E0805C9F4F821B91098F73A0
:100680009927089586E892E00E94360321E0892B9D
:1006900009F420E0822F089580E090E0892B29F072
:1006A0000E94420381110C9400000895FC01A48D66
:1006B000A80FB92FB11DA35ABF4F2C91848D90E084
:1006C00001968F739927848FA689B7892C93A08967
:1006D000B1898C91837080648C93938D848D9813F1
:1006E00006C00288F389E02D80818F7D8083089584
:1006F000EF92FF920F931F93CF93DF93EC0181E072
:10070000888F9B8D8C8D98131AC0E889F989808118
:1007100085FF15C09FB7F894EE89FF896083E8894B
:10072000F98980818370806480839FBF81E090E03D
:10073000DF91CF911F910F91FF90EF900895F62ECA
:100740000B8D10E00F5F1F4F0F731127E02E8C8D64
:100750008E110CC00FB607FCFACFE889F9898081A9
:1007600085FFF5CFCE010E945603F1CFEB8DEC0F44
:10077000FD2FF11DE35AFF4FF0829FB7F8940B8FC6
:10078000EA89FB8980818062CFCF0F931F93CF933B
:10079000DF938C01D0E0C0E0F801EC0FFD1F649105
:1007A000662341F086E892E00E947803892B11F0DD
:1007B0002196F2CFCE01DF91CF911F910F91089535
:1007C000CF93DF93EC01888D8823B9F0AA89BB8988
:1007D000E889F9898C9185FD03C0808186FD0DC073
:1007E0000FB607FCF7CF8C9185FFF2CF808185FF94
:1007F000EDCFCE010E945603E9CFDF91CF9108954E
:100800003FB7F8948091B8019091B901A091BA01D5
:10081000B091BB0126B5A89B05C02F3F19F00196EA
:10082000A11DB11D3FBFBA2FA92F982F8827BC014A
:10083000CD01620F711D811D911D42E0660F771F72
:10084000881F991F4A95D1F7089585ED8093BC00C4
:100850008091BC0084FDFCCF10925202089520913B
:100860009401260F3327331F21323105ECF42091F8
:100870005202FC0190E080E0243069F082E00895AB
:10088000A09194012191AC014C585E4FA40FB52F5B
:10089000B11D2C930196861798F380919401680FEF
:1008A0006093940180E0089581E008950895E091B7
:1008B000C7018091C601E81730F4F0E0E853FE4F1D
:1008C000808190E008958FEF9FEF08959091C70188
:1008D0008091C6012FEF3FEF981748F4E92FF0E021
:1008E000E853FE4F208130E09F5F9093C701C9011C
:1008F00008958091C6019091C701891B990B0895B5
:10090000CF92DF92EF92FF920F931F93CF93DF93DB
:100910007C01CB018A0120915302222389F0EB0153
:100920006B01C40ED51ECC15DD0569F06991D701A8
:10093000ED91FC910190F081E02DC7010995F3CF75
:10094000642F0E942F04C801DF91CF911F910F9156
:10095000FF90EF90DF90CF900895CF93DF931F9299
:10096000CDB7DEB76983209153022223F9F020919D
:100970007602203258F021E030E0FC0133832283FC
:1009800090E080E00F90DF91CF9108958091540224
:10099000E82FF0E0EB5AFD4F998190838F5F8093B1
:1009A00054028093760281E090E0ECCF61E0CE01CA
:1009B00001960E942F04F7CF90E080E008950F93F6
:1009C0001F93CF93DF9307E712E0D0E0C0E0CE01A2
:1009D0000E94A810F80181938F012196CF30D10594
:1009E000B1F787E792E0DF91CF911F910F910895C2
:1009F000DF92EF92FF920F931F93CF93DF937C01CF
:100A00008C01D0E0C0E0F801D1908F01CE010E94AE
:100A1000A810D81621F06D2DCE010E94B01021969D
:100A2000CF30D10581F7C701DF91CF911F910F9191
:100A3000FF90EF90DF900895FB0101900020E9F70F
:100A40003197AF01461B570BDC01ED91FC91028001
:100A5000F381E02D0994CF93DF930E94C503EC014D
:100A600069E371E086E892E00E941C058C0F9D1FEF
:100A7000DF91CF9108958FEE91E00E942B0583ECDA
:100A800091E00E942B0588E791E00E942B058BE303
:100A900091E00E942B0583E291E00E942B0586EFF6
:100AA00090E00E942B0581ED90E00C942B05CF93F4
:100AB000DF93CDB7DEB72F970FB6F894DEBF0FBE2A
:100AC000CDBF8FE0E6E0F1E0DE01119601900D92DE
:100AD0008A95E1F7CE0101960E94F8040E94DF0496
:100AE00083EA90E00E942B052F960FB6F894DEBFA4
:100AF0000FBECDBFDF91CF9108958F929F92AF929D
:100B0000BF920F931F93CF93DF93CDB7DEB7A1971B
:100B10000FB6F894DEBF0FBECDBF19A2423008F465
:100B20004AE08E010F5D1F4F842E912CB12CA12C19
:100B3000A50194010E94CE10E62FB901CA01EA3046
:100B400004F5E05DD801EE938D01232B242B252B9A
:100B500079F790E080E0109729F0BD0186E892E0F7
:100B60000E941C05A1960FB6F894DEBF0FBECDBF44
:100B7000DF91CF911F910F91BF90AF909F908F9079
:100B80000895E95CDFCF4F925F926F927F928F92D0
:100B90009F92AF92BF92CF92DF92EF92FF920F930C
:100BA0001F93CF936B017C01742EAC019B010E94BB
:100BB0005B126CE371E0811126C046015701E89495
:100BC000B7F82FEF3FEF4FE75FE7C501B4010E9491
:100BD0005B1281110CC02FEF3FEF4FE75FE7C501BC
:100BE000B4010E94840F60E471E0181664F02FEFE6
:100BF0003FEF4FE75FE4C701B6010E945612181697
:100C0000ACF464E471E086E892E0CF911F910F911B
:100C1000FF90EF90DF90CF90BF90AF909F908F901C
:100C20007F906F905F904F900C941C052FEF3FEFDB
:100C30004FE75FECC701B6010E94840F87FDE1CF4B
:100C400020E030E0A901C701B6010E94840F10E046
:100C500000E087FF0AC06DE286E892E00E94D102C0
:100C60008C01F7FAF094F7F8F094C0E060E070E0DF
:100C700080E09FE37C1641F020E030E040E251E468
:100C80000E94AE11CF5FF6CFA70196010E944211DC
:100C90002B013C010E9427124B015C014AE00E949B
:100CA0007D057C01E00EF11ECC23C1F1C501B4012C
:100CB0000E94890F9B01AC01C301B2010E94411146
:100CC0004B015C016EE286E892E00E94D102E80EE0
:100CD000F91EC15018F120E030E040E251E4C501B6
:100CE000B4010E94EA0F2B013C010E9427124B0124
:100CF000B12CA12C4AE0C501B4010E947D05E80E8B
:100D0000F91EC501B4010E94890F9B01AC01C3010A
:100D1000B2010E9441114B015C01DBCFC701CF91B1
:100D20001F910F91FF90EF90DF90CF90BF90AF9009
:100D30009F908F907F906F905F904F900895CF938A
:100D4000DF9384E992E00E942B0589E792E00E94FC
:100D50002B0585E692E00E94C503C7E7D2E06881D3
:100D600070E090E080E04AE00E947D0569E371E078
:100D700086E892E00E941C0581E592E00E94C5038E
:100D800069817A818B819C8146E00E94C30569E379
:100D900071E086E892E00E941C0585E492E00E94E2
:100DA000C5036D817E818F8198854AE00E947D0513
:100DB00069E371E086E892E00E941C0582E392E01C
:100DC0000E94C503698570E090E080E04AE00E94DF
:100DD0007D0580E392E00E94C5036A8570E090E0A3
:100DE00080E04AE00E947D0569E371E086E892E0D8
:100DF0000E941C058CE192E00E94C5036B857C85F6
:100E00008D859E854AE00E947D0569E371E086E854
:100E100092E0DF91CF910C941C05181619060CF086
:100E20005DC0FB014AE050E070E060E082819381A8
:100E30000E94C20C603B24E072078105910591F18C
:100E4000603629E072078105910561F1603C22E17D
:100E500072078105910531F1603825E2720781053D
:100E6000910501F161152BE4720781059105D1F01F
:100E7000611526E9720781059105A1F0611521EE42
:100E800072078105910571F0603824E2720721E054
:100E90008207910539F0611522EC720721E0820783
:100EA0009105C1F460937C0270937D0280937E0271
:100EB00090937F0287E792E00E94F8040E94DF048B
:100EC00060917C0270917D0280917E0290917F0200
:100ED0000C94BD018EEB90E00C942B050895181630
:100EE0001906BCF4FB014AE050E070E060E082814A
:100EF00093810E94C20C609382027093830280935C
:100F000084029093850287E792E00E94F8040C9493
:100F1000DF040895CF93DF93EB011816190614F53B
:100F20004AE050E070E060E08A819B810E94C20C40
:100F30004AE050E070E060E08C819D810E94C20C2C
:100F40008A819B810E94D90D609378027093790207
:100F500080937A0290937B0287E792E00E94F804E4
:100F60000E94DF0487E792E00E94F804DF91CF91AE
:100F70000C94DF04CF92DF92EF92FF920F931F93B6
:100F8000CF93DF936C018B0186E090E00E946612A4
:100F9000EC019093E9018093E801F60101900020B3
:100FA000E9F7CF018C199D090E9466127C01B601F8
:100FB0000E949413F60101900020E9F73197EC1993
:100FC000FD09EE0DFF1D1082F982E8821B830A8362
:100FD0008091BC019091BD019D838C83D093BD0114
:100FE000C093BC01DF91CF911F910F91FF90EF90C3
:100FF000DF90CF9008951F920F920FB60F92112499
:101000002F933F934F935F936F937F938F939F9310
:10101000AF93BF93EF93FF9386E892E00E9456034D
:10102000FF91EF91BF91AF919F918F917F916F91C0
:101030005F914F913F912F910F900FBE0F901F9096
:1010400018951F920F920FB60F9211242F938F9322
:101050009F93EF93FF93E0919602F0919702808126
:10106000E0919C02F0919D0282FD1BC090818091D5
:101070009F028F5F8F732091A002821741F0E09151
:101080009F02F0E0EA57FD4F958F80939F02FF91FA
:10109000EF919F918F912F910F900FBE0F901F9006
:1010A00018958081F4CF1F920F920FB60F921124E2
:1010B0002F933F938F939F93AF93BF938091C201E0
:1010C0009091C301A091C401B091C5013091B701C5
:1010D00023E0230F2D3758F50196A11DB11D209354
:1010E000B7018093C2019093C301A093C401B09350
:1010F000C5018091B8019091B901A091BA01B09158
:10110000BB010196A11DB11D8093B8019093B90157
:10111000A093BA01B093BB01BF91AF919F918F9102
:101120003F912F910F900FBE0F901F90189526E8BA
:10113000230F0296A11DB11DD2CF1F920F920FB6A1
:101140000F9211242F933F934F935F936F937F934D
:101150008F939F93AF93BF93EF93FF938091B900C9
:10116000887F803609F44AC0F0F5883209F4A7C0B8
:1011700018F5803109F49BC0B8F4882309F4F9C04C
:10118000883009F494C0FF91EF91BF91AF919F9186
:101190008F917F916F915F914F913F912F910F9020
:1011A0000FBE0F901F901895883109F488C08032C7
:1011B00051F78093500214C0803409F49DC040F46C
:1011C0008033B9F38833F9F68093500285ECB0C0D0
:1011D000803509F485C0883509F496C0883499F6BD
:1011E0000E942504D0CF883909F48CC038F588379F
:1011F00029F050F4883611F0803729F683E0809387
:1012000052021092B60157C0883809F47BC0803969
:1012100019F0803809F0B7CF8091B601803208F01C
:1012200071C0E091B60181E08E0F8093B60180918C
:10123000BB00F0E0EA56FE4F80833DC0803B39F0B2
:10124000E0F4803A09F479C0883A09F09CCF84E050
:10125000809352021092950110929401E091C00186
:10126000F091C10109958091940181110FC081E035
:10127000809394011092740109C0803C09F4A6CFB8
:10128000883C09F4A3CF883B09F07DCFE09195011C
:1012900081E08E0F80939501F0E0EC58FE4F808145
:1012A0008093BB00909195018091940129C0809119
:1012B0002D028093BB0085EC8093BC0064CF90919D
:1012C0004F0280914E02981758F5E0914F0281E04D
:1012D0008E0F80934F02F0E0E25DFD4F8081E9CFF9
:1012E000E0914F0281E08E0F80934F028091BB000E
:1012F000F0E0E25DFD4F808390914F0280914E02BD
:101300009817C8F285E8D8CFE0914F0281E08E0FA0
:1013100080934F028091BB00F0E0E25DFD4F80833F
:101320008091510281115CCF81E080932C0284EA8C
:101330008093BC001092520226CF85EC8093BC00B3
:10134000109252028091B601803230F4E091B601E1
:10135000F0E0EA56FE4F10826091B60170E0E09135
:10136000BE01F091BF0186E991E009951092B601A6
:101370000ACF1092500234CFE6E8F2E013821282D4
:1013800088EE93E0A0E0B0E084839583A683B783E2
:1013900029E131E03183208325EC30E03587248753
:1013A00024EC30E03787268720EC30E0318B208B2F
:1013B00021EC30E0338B228B22EC30E0358B248B18
:1013C00026EC30E0378B268B118E128E138E148E06
:1013D000E3E2F3E01382128284839583A683B783CA
:1013E0008BE291E091838083EFE2F3E01482138239
:1013F00088E4808389E0818312820895CF93DF930C
:10140000CDB7DEB7CE56D1090FB6F894DEBF0FBE0A
:10141000CDBF789484B5826084BD84B5816084BD7D
:1014200085B5826085BD85B5816085BD80916E0082
:10143000816080936E0010928100809181008260B3
:1014400080938100809181008160809381008091F0
:1014500080008160809380008091B10084608093DF
:10146000B1008091B00081608093B00080917A00DB
:10147000846080937A0080917A00826080937A0001
:1014800080917A00816080937A0080917A008068F0
:1014900080937A001092C1000E94DF04809177024D
:1014A0008D3241F480918002813021F4809181025B
:1014B000813031F08DEA92E00E942B050E945705A1
:1014C00086E892E090932902809328028AEE91E0C8
:1014D00090932702809326021092BD011092BC01C6
:1014E0006AE877E088E491E00E94BA076DE077E06F
:1014F0008FE491E00E94BA076BE375E087E591E025
:101500000E94BA076FE976E08CE591E00E94BA0785
:1015100067E575E081E691E00E94BA076FE677E043
:101520008AE691E00E94BA0760917C0270917D0288
:1015300080917E0290917F020E94BD011092330340
:10154000109232031092C7011092C60110925402F9
:10155000109276021092520281E080935102109212
:101560002C0282E10E942B0283E10E942B028091D7
:10157000B9008E7F8093B9008091B9008D7F8093F0
:10158000B90088E48093B80085E48093BC008FECB8
:1015900092E09093C1018093C00180ED92E090931E
:1015A000BF018093BE0195EE392E25EC222E11E06D
:1015B0002FB7F8948091C2019091C301A091C4010A
:1015C000B091C5012FBF0196A11DB11D20912A0226
:1015D00030912B02821B930BA109B1094091820229
:1015E00050918302609184027091850248175907D7
:1015F0006A077B0708F0FFC02FB7F8948091C201FB
:101600009091C301A091C401B091C5012FBF9093E7
:101610002B0280932A02E0903203F090330323E8F8
:10162000E22A21E8F22A80912F031093530280933B
:101630007502109254021092760261E083E293E008
:101640000E94AD046F2D83E293E00E94AD046E2DE5
:1016500083E293E00E94AD0481E00E9472028091D7
:101660003003482E512C712C612C0E9400044B0138
:101670005C014114510461047104B9F00E9400043A
:10168000681979098A099B09683E734081059105AB
:1016900080F381E0481A51086108710898EE890EBC
:1016A00093E0991EA11CB11CE4CFF0902F0310937E
:1016B0005302F0927502109254021092760260E08A
:1016C00083E293E00E94AD0481E00E947202809167
:1016D00052028111FCCF1093520210935102BFEFBE
:1016E000B093500210924F0210934E0210932D02AD
:1016F00080912D02FF0CF82AF0922D0280912C028D
:10170000813009F0ABC010922C0280912D028093A1
:10171000BB008091BC0083FDF8CF2092BC0080917B
:1017200052028130E1F380914F0292E0823010F456
:1017300090914F02AEE2B2E0E8ECF1E080E0891374
:1017400090C01092C7018093C60183E293E00E948B
:101750006604F82E83E293E00E94660490913103C0
:10176000DF2CC12CB601682B092E02C07695679537
:101770000A94E2F7992329F06115E8E07E0708F062
:10178000706F072E000C880B990B0E948B0F20E0C6
:1017900030E040E45EE30E94EA0F0E942012072E30
:1017A000000C880B990B0E948B0F209178023091CE
:1017B000790240917A0250917B020E94EA0F2B013C
:1017C0003C0160912A0270912B0290E080E04AE097
:1017D0000E947D0560E771E086E892E00E941C05AA
:1017E00042E0C301B2010E94C30569E371E086E8EB
:1017F00092E00E941C058091280290912902DC0150
:10180000ED91FC910084F185E02D0995892B09F477
:10181000ACC08091280290912902DC01ED91FC91ED
:101820000284F385E02D0995082F8A3021F38091F9
:101830002802909129020D30C1F0083009F086C0CD
:1018400068E00E94D1028091260290912702F1E087
:101850008A3E9F0781F278F2019759C03092BC000E
:101860005ECF2D9121938F5F6ACFE0912602F09198
:101870002702108269E371E00E941C0562E771E0B3
:101880008AEE91E00E94ED0D9A8389835E01B3E0B8
:10189000AB0EB11CEE24E394F12C7E2C6F2C62E78E
:1018A00071E090E080E00E94ED0DF501819391934D
:1018B0005F01FEE1EF16F10429F02FEFE21AF20AC0
:1018C000892B59F7E090E801F090E901A980BA80EE
:1018D000E114F10429F1D7016D917C91C5010E94B9
:1018E0008B13892BC9F4D7011296ED91FC91BE019F
:1018F0006F5F7F4F872D962D099569E371E0809189
:101900002802909129020E941C058AEE91E0909392
:101910002702809326026FCFF701E480F580D8CFAD
:1019200061EC72E0CE01CD960E94E60DE0902802B7
:10193000F0902902BE01635C7F4FC7010E941C0525
:1019400069E371E0C7010E941C05D7CF602F0E9498
:10195000D102E0912602F0912702CF0101969093E7
:10196000270280932602008346CF80E090E0892BF7
:1019700009F41ECE0E944203882309F419CE0E9466
:10198000000016CEB0E0A0E0E8ECFCE00C94FC1007
:101990005C016B017A016115710519F0FB019183FE
:1019A0008083E114F10451F0C7010297839730F06E
:1019B00040E030E020E090E072C05E01E501219659
:1019C000F5011081812F90E00E94DD0D892BA9F790
:1019D0001D3201F52196F501118101E0E114F104B8
:1019E00009F4DAC0F0E1EF16F10409F082C0103317
:1019F00059F488818F7D883509F076C01981229647
:101A00000260F0E1EF2EF12C812C912CA12C88E0CA
:101A1000B82E8CC01B3221F4E5012296F50111810C
:101A200000E0DCCFEAE0EE16F10409F4BBC0F0E11F
:101A3000EF16F10409F06DC0E7CF78E0E72EF12C46
:101A4000812C912CA12C60E1B62E70C03FE9310FA2
:101A50003A3128F439EA332E80C021E09AC0302F81
:101A60003170C114D10431F0222309F12197F6011C
:101A7000D183C08327FF21C060E070E080E090E860
:101A8000311104C06FEF7FEF8FEF9FE722E230E06C
:101A90003093370320933603462F372F282F642F98
:101AA000732F822FCDB7DEB7E1E10C94181101FF3F
:101AB00004C02297F601D183C083332341F090956F
:101AC0008095709561957F4F8F4F9F4FE5CF97FF22
:101AD000E3CF82E290E090933703809336036FEF79
:101AE0007FEF8FEF9FE7D8CF10E3E114F10409F403
:101AF000A4CF28E0E216F10409F4A2CF0CF092CFB3
:101B0000812C912CA12CE0E4BE2E82E0E816F10499
:101B100069F060E070E080E090E897010F2C000C25
:101B2000440B550B0E94CE1049015A0120E060E0A1
:101B300070E0CB0127010F2C000C66087708FE012E
:101B400050ED352E310E39E0331540F43FEB310FB7
:101B50003A3108F07BCF49EC342E310E3E141F048D
:101B60000CF07DCF27FD15C086169706A806B9068E
:101B700078F0A30192010E94BE10630D711D811DBA
:101B8000911D61307105810520E8920708F465CF49
:101B90002FEF21961081D3CF103309F42ACF2AE0FA
:101BA000E22EF12C9CEC892E982CA82C9CE0B92ECE
:101BB000BDCF662777270C94190E91110C94690FED
:101BC000803219F089508550C8F70895FB01DC0177
:101BD00005900D920020E1F7089544E353E00E9440
:101BE000F20D0895FA01A191B081009719F41097B0
:101BF000E1F0CD01DC01CD010D90002011F4C00118
:101C000013C0FB012191222319F02015D9F7F3CF3E
:101C1000FB012191201519F41E92119606C0222372
:101C2000C1F70D900020A1F7D001FA01A193B08374
:101C30000895B0E0A0E0EFE1FEE00C9401115C013A
:101C40007B016115710519F0DB018D939C93850172
:101C50000F5F1F4FF501D0818D2F90E00E94DD0DA9
:101C60006C01892BB9F5DD32B9F50F5F1F4FD50136
:101C70001196DC91C1E05801F1E0AF1AB10843E0E0
:101C800050E060E770E0C5010E946C0F892B69F598
:101C9000680182E0C80ED11C45E050E06BE670E0C0
:101CA000C6010E946C0F892B21F4680197E0C90ED0
:101CB000D11CE114F10419F0D701CD92DC9260E05F
:101CC00070E080E89FEFC111FFC060E070E080E845
:101CD0009FE7FAC05801BBCFDB3229F485010E5FC4
:101CE0001F4FF501D181C0E0C6CF43E050E068E668
:101CF00070E0C5010E946C0F892BE9F0F80110E03B
:101D000000E020E030E0A9015F01B0ED8B2E8D0EE8
:101D100089E08815C8F19C2E689491F88C2F887002
:101D2000C2FF16C0811102C00F5F1F4F3196D5014F
:101D3000DC91C92DE9CFE114F10429F00E5F1F4FAA
:101D4000F7011183008360E070E080EC9FE7BCC086
:101D5000882311F001501109A5E0B0E00E94F010B5
:101D60009B01AC01220F331F441F551F280D311D4D
:101D7000411D511D283999E93907490799E159074A
:101D8000A8F2C6609C2ED2CFAEEF8A1206C0C3FD69
:101D90003CC09C2E689493F8C9CFDF7DD534A9F55B
:101DA00080818D3239F4C061DF011296818162E059
:101DB00070E006C0DF018B32C1F3119661E070E084
:101DC00080535D01A61AB70A8A30F8F4E0E8CE160F
:101DD000ECE0DE065CF4B601660F771F660F771F36
:101DE000C60ED71ECC0CDD1CC80ED11C5D01FFEF4A
:101DF000AF1ABF0A8C9180538A30A8F1C4FF03C088
:101E0000D194C194D1080C0D1D1DC1FF09C0E1146E
:101E1000F10431F081E0A81AB108D701AD92BC926B
:101E2000CA01B9010E94890FC370C33009F49058E8
:101E30004B015C0120E030E0A9010E94840F88235F
:101E400009F440C0CFE9D0E017FF05C01195019516
:101E50001109C7E8D0E06E01B8E1CB1AD10880E2E1
:101E6000E82EF12C0FC0D501B1CFFE01259135919F
:101E7000459154910E191F09C501B4010E94EA0F42
:101E80004B015C01D501C4010E151F0574F72497A1
:101E9000F594E794CC16DD06A9F78A2F880F8B2FCF
:101EA000881F8F3F49F020E030E0A901C501B4014F
:101EB0000E94840F811106C082E290E09093370364
:101EC00080933603C501B401CDB7DEB7ECE00C94C6
:101ED0001D11992788270895FB01DC0141505040CE
:101EE00088F08D9181341CF08B350CF4805E659107
:101EF00061341CF06B350CF4605E861B611171F36C
:101F0000990B0895881BFCCF0E94C60F08F481E04E
:101F10000895E89409C097FB3EF4909580957095DC
:101F200061957F4F8F4F9F4F9923A9F0F92F96E925
:101F3000BB279395F695879577956795B795F1119A
:101F4000F8CFFAF4BB0F11F460FF1BC06F5F7F4F37
:101F50008F4F9F4F16C0882311F096E911C0772349
:101F600021F09EE8872F762F05C0662371F096E852
:101F7000862F70E060E02AF09A95660F771F881F21
:101F8000DAF7880F9695879597F90895990F0008C5
:101F9000550FAA0BE0E8FEEF16161706E807F9073B
:101FA000C0F012161306E407F50798F0621B730BD6
:101FB000840B950B39F40A2661F0232B242B252B57
:101FC00021F408950A2609F4A140A6958FEF811DFA
:101FD000811D08950E94FD0F0C946E100E946010E8
:101FE00038F00E94671020F0952311F00C945710E0
:101FF0000C945D1011240C94A2100E947F1070F3B9
:10200000959FC1F3950F50E0551F629FF001729F9D
:10201000BB27F00DB11D639FAA27F00DB11DAA1FAC
:10202000649F6627B00DA11D661F829F2227B00DF9
:10203000A11D621F739FB00DA11D621F839FA00D84
:10204000611D221F749F3327A00D611D231F849FD4
:10205000600D211D822F762F6A2F11249F5750402B
:102060009AF0F1F088234AF0EE0FFF1FBB1F661FA6
:10207000771F881F91505040A9F79E3F510580F06F
:102080000C9457100C94A2105F3FE4F3983ED4F3E5
:10209000869577956795B795F795E7959F5FC1F713
:1020A000FE2B880F911D9695879597F9089597F9BE
:1020B0009F6780E870E060E008959FEF80EC0895EE
:1020C00000240A9416161706180609060895002417
:1020D0000A9412161306140605060895092E039491
:1020E000000C11F4882352F0BB0F40F4BF2B11F405
:1020F00060FF04C06F5F7F4F8F4F9F4F089557FD64
:102100009058440F551F59F05F3F71F04795880F65
:1021100097FB991F61F09F3F79F0879508951216FC
:1021200013061406551FF2CF4695F1DF08C01616A8
:1021300017061806991FF1CF869571056105089459
:102140000895E894BB2766277727CB0197F9089570
:10215000F999FECF92BD81BDF89A992780B508956F
:10216000262FF999FECF1FBA92BD81BD20BD0FB6B3
:10217000F894FA9AF99A0FBE01960895DB018F93AD
:102180009F930E94F010BF91AF91A29F800D911D6F
:10219000A39F900DB29F900D11240895A1E21A2ED5
:1021A000AA1BBB1BFD010DC0AA1FBB1FEE1FFF1FFB
:1021B000A217B307E407F50720F0A21BB30BE40B4B
:1021C000F50B661F771F881F991F1A9469F7609592
:1021D0007095809590959B01AC01BD01CF0108954C
:1021E0000E943211A59F900DB49F900DA49F800D69
:1021F000911D112408952F923F924F925F926F92FA
:102200007F928F929F92AF92BF92CF92DF92EF9286
:10221000FF920F931F93CF93DF93CDB7DEB7CA1B07
:10222000DB0B0FB6F894DEBF0FBECDBF09942A8832
:10223000398848885F846E847D848C849B84AA84DA
:10224000B984C884DF80EE80FD800C811B81AA8167
:10225000B981CE0FD11D0FB6F894DEBF0FBECDBF32
:10226000ED010895A29FB001B39FC001A39F700D1F
:10227000811D1124911DB29F700D811D1124911D8E
:1022800008955058BB27AA270E9459110C946E102C
:102290000E94601038F00E94671020F039F49F3FD0
:1022A00019F426F40C945D100EF4E095E7FB0C9401
:1022B0005710E92F0E947F1058F3BA17620773076F
:1022C0008407950720F079F4A6F50C94A1100EF47C
:1022D000E0950B2EBA2FA02D0B01B90190010C0136
:1022E000CA01A0011124FF27591B99F0593F50F44E
:1022F000503E68F11A16F040A22F232F342F4427A6
:10230000585FF3CF469537952795A795F04053959D
:10231000C9F77EF41F16BA0B620B730B840BBAF06D
:102320009150A1F0FF0FBB1F661F771F881FC2F7D8
:102330000EC0BA0F621F731F841F48F487957795EC
:102340006795B795F7959E3F08F0B0CF9395880FA6
:1023500008F09927EE0F9795879508950E94C2116E
:102360000C946E100E94671058F00E94601040F0AC
:1023700029F45F3F29F00C94571051110C94A210CE
:102380000C945D100E947F1068F39923B1F35523DC
:1023900091F3951B550BBB27AA2762177307840778
:1023A00038F09F5F5F4F220F331F441FAA1FA9F30E
:1023B00035D00E2E3AF0E0E832D091505040E695FC
:1023C000001CCAF72BD0FE2F29D0660F771F881F5D
:1023D000BB1F261737074807AB07B0E809F0BB0B50
:1023E000802DBF01FF2793585F4F3AF09E3F510564
:1023F00078F00C9457100C94A2105F3FE4F3983ED1
:10240000D4F3869577956795B795F7959F5FC9F74C
:10241000880F911D9695879597F90895E1E0660FCD
:10242000771F881FBB1F621773078407BA0720F046
:10243000621B730B840BBA0BEE1F88F7E0950895AF
:102440000E9427126894B1110C94A21008950E9462
:10245000871088F09F5798F0B92F9927B751B0F09F
:10246000E1F0660F771F881F991F1AF0BA95C9F718
:1024700014C0B13091F00E94A110B1E008950C9405
:10248000A110672F782F8827B85F39F0B93FCCF3B8
:10249000869577956795B395D9F73EF49095809595
:1024A000709561957F4F8F4F9F4F08950E94C60F83
:1024B00008F48FEF08950E94C60F880B990B0895BA
:1024C000EE0FFF1F0590F491E02D09940F931F93D9
:1024D000CF93DF938230910510F482E090E0E09199
:1024E0003A03F0913B0330E020E0B0E0A0E0309709
:1024F00099F42115310509F44AC0281B390B243001
:102500003105D8F58A819B816115710589F1FB013F
:1025100093838283FE0111C0408151810281138126
:1025200048175907E0F04817590799F4109761F0D8
:1025300012960C93129713961C933296CF01DF914B
:10254000CF911F910F91089500933A0310933B038D
:10255000F4CF2115310551F04217530738F0A90186
:10256000DB019A01BD01DF01F801C1CFEF01F9CF15
:1025700090933B0380933A03CDCFFE01E20FF31F0C
:10258000819391932250310939832883D7CF2091A9
:10259000380330913903232B41F42091020130910B
:1025A00003013093390320933803209100013091C7
:1025B00001012115310541F42DB73EB740910401C9
:1025C00050910501241B350BE0913803F09139033C
:1025D000E217F307A0F42E1B3F0B2817390778F0FA
:1025E000AC014E5F5F4F2417350748F04E0F5F1F59
:1025F0005093390340933803819391939FCFF0E038
:10260000E0E09CCFCF93DF930097E9F0FC01329795
:1026100013821282A0913A03B0913B03ED0130E0A6
:1026200020E01097A1F420813181820F931F209127
:102630003803309139032817390709F061C0F09346
:102640003903E0933803DF91CF910895EA01CE1763
:10265000DF07E8F54A815B819E0141155105B1F71D
:10266000E901FB83EA8349915991C40FD51FEC1707
:10267000FD0761F4808191810296840F951FE90125
:1026800099838883828193819B838A83F0E0E0E051
:1026900012968D919C9113970097B9F52D913C91CD
:1026A0001197CD010296820F931F2091380330912C
:1026B00039032817390739F6309751F510923B0343
:1026C00010923A03B0933903A0933803BCCFD3835D
:1026D000C28340815181840F951FC817D90761F4C7
:1026E0004E5F5F4F88819981480F591F5183408306
:1026F0008A819B81938382832115310509F0B0CFB4
:10270000F0933B03E0933A039ECFFD01DC01C0CF81
:1027100013821282D7CFFB01DC018D9101908019C9
:102720000110D9F3990B0895FB01DC0101900D9282
:0A2730000020E1F70895F894FFCFB0
:10273A0000003C0380002D0000803F00C201000120
:10274A0001E8030000000000007803D8020503E056
:10275A000336031403280300000000AD048004DCE0
:10276A000456047904660457040D0A006E616E006B
:10277A00696E66006F76660053455443414C0053B8
:10278A004554424155440048454C500053484F5720
:10279A000044454641554C54530054494D45440064
:0427AA002C002000DF
:107E0000112484B714BE81FFF0D085E080938100F7
:107E100082E08093C00088E18093C10086E0809377
:107E2000C20080E18093C4008EE0C9D0259A86E02C
:107E300020E33CEF91E0309385002093840096BBD3
:107E4000B09BFECF1D9AA8958150A9F7CC24DD24C4
:107E500088248394B5E0AB2EA1E19A2EF3E0BF2EE7
:107E6000A2D0813461F49FD0082FAFD0023811F036
:107E7000013811F484E001C083E08DD089C08234E0
:107E800011F484E103C0853419F485E0A6D080C0E4
:107E9000853579F488D0E82EFF2485D0082F10E0AE
:107EA000102F00270E291F29000F111F8ED06801E7
:107EB0006FC0863521F484E090D080E0DECF843638
:107EC00009F040C070D06FD0082F6DD080E0C81688
:107ED00080E7D80618F4F601B7BEE895C0E0D1E017
:107EE00062D089930C17E1F7F0E0CF16F0E7DF06D8
:107EF00018F0F601B7BEE89568D007B600FCFDCFD4
:107F0000A601A0E0B1E02C9130E011968C91119780
:107F100090E0982F8827822B932B1296FA010C0160
:107F200087BEE89511244E5F5F4FF1E0A038BF0790
:107F300051F7F601A7BEE89507B600FCFDCF97BE46
:107F4000E89526C08437B1F42ED02DD0F82E2BD052
:107F50003CD0F601EF2C8F010F5F1F4F84911BD097
:107F6000EA94F801C1F70894C11CD11CFA94CF0C13
:107F7000D11C0EC0853739F428D08EE10CD085E9AC
:107F80000AD08FE07ACF813511F488E018D01DD067
:107F900080E101D065CF982F8091C00085FFFCCF94
:107FA0009093C60008958091C00087FFFCCF809118
:107FB000C00084FD01C0A8958091C6000895E0E648
:107FC000F0E098E1908380830895EDDF803219F02E
:107FD00088E0F5DFFFCF84E1DECF1F93182FE3DFCA
:107FE0001150E9F7F2DF1F91089580E0E8DFEE27F6
:047FF000FF270994CA
:027FFE00040479
:0400000300007E007B
:00000001FF
